000L2009070302236TEST                        00000001000000                                                                                                                                           
030L0000001000001                                                                                                                                                                                     
031L00000010000000010944025246703085829086M  CHAUKE                                                      00000000149505000000000223600000008000                                                       
031L00000020000000029684746696103120039082A  VAN MOLENDORF                                               00020304198841000000000223600000000000                                                       
031L00000030000000024920081778801261110087U  NKWEBA                                                      00000000149205000000000223605000700000                                                       
039L0000003000000006554885370                                                                                                                                                                         
999L000000007                                                                                                                                                                                         
