000L2009070302236TEST                        00000001000000                                                                                                                                           
030L0000001000001                                                                                                                                                                                     
031L00000010000000010944025246703085829086M  CHAUKE                                                      00000000                              1495050000000002236000000080000                        
031L00000020000000029684746696103120039082A  VAN MOLENDORF                                               00020304                              1988410000000002236000000000000                        
031L00000030000000024920081778801261110087U  NKWEBA                                                      00000000                              1492050000000002236050007000000                        
999L000000007                                                                                                                                                                                         
