000L2009070302236TEST                          000000000000                                                                                                                                           
030L0000001000001                                                                                                                                                                                     
031L00000010000000010944025246703085829086M  CHAUKE                                                      00000000149505000060000223600000000000                                                       
031L00000020000000029684746696103120039082A  VAN MOLENDORF                                               00000000198841000060000223600000000000                                                       
031L00000030000000024920081778801261110087U  NKWEBA                                                      00000000149205000060000223600000000000                                                       
039L0000003000000006554885370                                                                                                                                                                         
999L000000007                                                                                                                                                                                         
