000T2004052400010LDC USER 10 AFRICA (PTY)      000062100000                                                                                                                                           
001T0495340405240405310405240405270000010037CORPSSV                                                                                                                                                   
001T5063200504053538939953400000163200501019611899100000001000040524440   ALIMITTST1SPP    040524 01    HENNIE DU TOIT   040524       00000000000000000000                21                          
001T5063200504053538939953400000263200501019801892100000002000040524440   ALIMITTST1SPP    040524 02    TYRONE DREYDEN   040524       00000000000000000000                21                          
001T5063200504053538939953400000363200501021131896100000003000040524440   ALIMITTST1SPP    040524 03    KEITH MEIKLEJOHN 040524       00000000000000000000                21                          
001T5063200504053538939953400000463200501022131890100000004000040524440   ALIMITTST1SPP    040524 04    CHRISTO SPIES    040524       00000000000000000000                21                          
001T5063200504053538939953400000563200501057401890100006005000040524440   ALIMITTST1SPP    040524 05    DENISE RETIEF    040524       00000000000000000000                21                          
001T5063200504053538939953400000663200518000010304100003006000040524440   ALIMITTST1SPP    040524 06    PETER HAUPT      040524       00000000000000000000                21                          
001T5063200504053538939953400000763200501020861726100007007000040524440   ALIMITTST1SPP    040524 07    HADLEY RAW       040524       00000000000000000000                21                          
001T5263200504053538939953400000863200504053538939100016028000040524100000ALIMITTST1CONTRA 040524 08                                                                                                  
001T5063200501004651894953400000963200501006221897100000010000040525440   ALIMITTST2SPP    040525 01    HENNIE DU TOIT   040525       00000000000000000000                21                          
001T5063200501004651894953400001063200501006241898100000020000040525440   ALIMITTST2SPP    040525 02    TYRONE DREYDEN   040525       00000000000000000000                21                          
001T5063200501004651894953400001163200501009831891100004030000040525440   ALIMITTST2SPP    040525 03    KEITH MEIKLEJOHN 040525       00000000000000000000                21                          
001T5063200501004651894953400001263200501010000609100000040000040525440   ALIMITTST2SPP    040525 04    CHRISTO SPIES    040525       00000000000000000000                21                          
001T5063200501004651894953400001363200501019141892100000050000040525440   ALIMITTST2SPP    040525 05    DENISE RETIEF    040525       00000000000000000000                21                          
001T5063200501004651894953400001463200501019591898100000060000040525440   ALIMITTST2SPP    040525 06    PETER HAUPT      040525       00000000000000000000                21                          
001T5063200501004651894953400001563200501020861726100000070000040525440   ALIMITTST2SPP    040525 07    HADLEY RAW       040525       00000000000000000000                21                          
001T5263200501004651894953400001663200501004651894100004280000040525100000ALIMITTST2CONTRA 040525 08                                                                                                  
001T929534000001000016040524040527000014000002000002000020308000000020308000036311034141                                                                                                              
999T000000020                                                                                                                                                                                         
